:100000000C9442020C946A020C946A020C94CB1376
:100010000C94CB130C94CB130C946A020C946F0FBA
:100020000C946A020C946A020C946A020C946A02A0
:100030000C946A020C946A020C946A020C946A0290
:100040000C9480190C946A020C946B120C94451257
:100050000C946A020C946A020C946A020C946A0270
:100060000C949D120C946A02A329B929CA29DD298E
:10007000E629312A392A442A4F2A572A572A572A49
:10008000572A572A572A572A572A572A572A572A68
:10009000572A572A572A572A572A572A572A572A58
:1000A000572A572A572A572AA329B429B929CA29CE
:1000B000DD29E629F929022A0B2A00407A10F35A91
:1000C00000A0724E18090010A5D4E80000E8764898
:1000D000170000E40B54020000CA9A3B000000E144
:1000E000F505000080969800000040420F000000D7
:1000F000A08601000000102700000000E8030000B7
:1001000000006400000000000A0000000000010080
:10011000000000002C76D888DC674F0823DFC1DFA1
:10012000AE59E1B1B796E5E3E453C63AE6519976A4
:1001300096E8E6C28426EB898C9B62ED407C6FFCDE
:10014000EFBC9C9F40F2BAA56FA5F490055A2AF720
:100150005C936B6CF9676DC11BFCE0E40D47FEF529
:1001600020E6B500D0ED902E030094357705008091
:10017000841E080000204E0A000000C80C333333F0
:10018000330F986E12831141EF8D2114893BE65590
:1001900016CFFEE6DB18D1844B381BF77C1D901D73
:1001A000A4BBE424203284725E228100C9F124ECD5
:1001B000A1E53D27554846204F4B0D0A00564846BD
:1001C000204F4B0D0A00204F4B0D0A00204F4B0DC6
:1001D0000A00204F4B0D0A007B633A25642C663AD7
:1001E00025642C733A25642C743A25647D007B7D4C
:1001F0005D0D0A002C000D0A4D445B007D7D0A0D4B
:1002000000224154223A25642C22414D223A2248B0
:100210004542454C45222C224146223A25642C2257
:100220004946223A2564002266756C223A25642CE0
:1002300022666C6C223A25642C2273756C223A2556
:10024000642C22736C6C223A25642C002263732286
:100250003A25642C22736D6A223A25642C22736D30
:100260006E223A25642C2263223A222573222C2204
:100270006D223A222573222C2272223A25642C22E6
:1002800066756C223A25642C000A0D7B22434422B9
:100290003A7B0054580D0A0052580D0A004441544C
:1002A000413A202564203D202564200D0A00637515
:1002B0007272656E7463682025642025642025644D
:1002C0002025642025640D0A000D0A536563696DBD
:1002D000696E697A3E0040564E4140092564092501
:1002E000640D0A003E256409000D0A23564E412381
:1002F00009256C09256C0D0A00536563696D696EEB
:10030000697A203E0A0D00472D475053204F6B75E8
:100310000A0D004D2D41505253204D6573616A699D
:100320000A0D00542D415052532073657373697A3E
:100330006C696B207375726573690A0D00532D41EA
:1003400050525320636167726920697361726574EA
:10035000690A0D004B2D4B6F6E666967757261738C
:10036000796F6E2059617A0A0D00482D48616669DF
:100370007A612049736C656D6C6572690A0D00566F
:100380002D416E616C697A6F722053696E69726C6F
:100390006172690A0D00462D4672656B616E7320AD
:1003A00053696E69726C6172690A0D00412D416377
:1003B000696C6973204D6573616A6920446567697A
:1003C000737469720A0D00432D5648462F554846EE
:1003D0002043657672696D69205961700A0D002DA0
:1003E0002D2D2D2D2D2D2D2D2D2D2D2D2D2D2D2D3D
:1003F0002D2D2D2D2D2D2D2D0A0D004153454C5306
:10040000414E2034387878202D2054414D534154AA
:10041000204B697420287625642E25642D257329A8
:10042000200A0D000200000000240027002A00001E
:10043000000000250028002B0000000000230026FB
:100440000029000404040404040404020202020259
:100450000203030303030301020408102040800188
:100460000204081020010204081020000000080007
:10047000020100000304070000000000000000006B
:10048000932B7B2B11241FBECFEFD8E0DEBFCDBF57
:1004900025E0ACE5B3E001C01D92A53BB207E1F752
:1004A00013E0A0E0B1E0E4E9FDE602C005900D92A2
:1004B000AC35B107D9F712E0C1E4D2E004C021970E
:1004C000FE010E94A930C034D107C9F70E94CA19A1
:1004D0000C94BD360C94000061E087E00E948818FF
:1004E00061E070E080E090E00E94151960E087E034
:1004F0000C9488180F931F93CF93DF938C01C62F12
:10050000D0E0219720F1C8010C2E02C09595879567
:100510000A94E2F780FF02C061E001C060E08AE077
:100520000E94881861E070E080E090E00E94151958
:1005300061E089E00E94881861E070E080E090E06E
:100540000E94151960E089E00E948818DACFDF91D7
:10055000CF911F910F91089561E083E00E94881868
:100560008BEC90E00E940A1960E083E00E948818FA
:100570008BEC90E00E940A1961E083E00E948818E9
:100580008BEC90E00E940A1960E083E00E948818DA
:100590008BEC90E00C940A1961E083E00E948818CB
:1005A00086E991E00E940A1960E083E00E948818C1
:1005B00086E991E00C940A19EF92FF920F931F9332
:1005C000CF93DF9300D0CDB7DEB7F894EE24E39459
:1005D00080ED94E00E94630C892B69F180ED94E03A
:1005E0000E94410CF82E89831A8200919B0510917C
:1005F0009C050F5F1F4FB80187E995E00E94BE0E72
:10060000882399F0209197053091980580919B055A
:1006100090919C05BE016F5F7F4F820F931F0E94D8
:10062000F93310939C0500939B058AE0F812D0CF14
:10063000E0927C03CDCF78940F900F90DF91CF9113
:100640001F910F91FF90EF9008950C94DD2FEF9282
:10065000FF920F931F93CF93DF93D82FE62E08E0DE
:1006600010E0FF24F3944D2F41702091140130913C
:100670001501C90196958795242720FF04C028E01D
:10068000822724E892279093150180931401C0914A
:10069000CE03442381F0CC2319F00E94CC0202C087
:1006A0000E94AC028091CD038F5F8093CD03EE203A
:1006B00071F0853061F4CF25C093CE03CC2319F0BF
:1006C0000E94CC0202C00E94AC021092CD03D695CB
:1006D0000150110941F6DF91CF911F910F91FF90C9
:1006E000EF90089580E20E94861580E090E00E94DD
:1006F000FC140E942A1581E20E9486158FEF90E07B
:100700000E94FC140E942A1581E290E00E94E816E3
:100710008DE695E00E94540D2FEF30E0A901481BB3
:10072000590B4430510549F04230510549F04130F0
:10073000510549F483E090E0089581E090E0089548
:1007400082E090E0089580E090E00895CF93DF93F9
:1007500084E193E09F938F931F921F921F9283E0F7
:100760008F938BEF93E09F938F93C0EDD4E0DF9353
:10077000CF930E947C168FED93E09F938F93DF932E
:10078000CF930E947C1687EC93E09F938F93DF9327
:10079000CF930E947C168CEA93E09F938F93DF9314
:1007A000CF930E947C1686E993E09F938F93DF930B
:1007B000CF930E947C168FE793E09F938F93DF93F4
:1007C000CF930E947C168AE693E09F938F93DF93EA
:1007D000CF930E947C168DB79EB782960FB6F89481
:1007E0009EBF0FBE8DBF84E593E09F938F93DF93F1
:1007F000CF930E947C168DE393E09F938F93DF93BA
:10080000CF930E947C1683E293E09F938F93DF93B4
:10081000CF930E947C1683E193E09F938F93DF93A5
:10082000CF930E947C1687E093E09F938F93DF9392
:10083000CF930E947C1689EF92E09F938F93DF9372
:10084000CF930E947C168DB79EB748960FB6F8944A
:100850009EBF0FBE8DBFDF91CF91089565E875E013
:1008600084E190E00E949E146BE875E08CE390E0D8
:100870000E949E146091010182E490E00E94D114D4
:100880006FE775E083E490E00E949E1469E775E0ED
:100890008BE490E00C949E144F925F926F927F9243
:1008A0008F929F92AF92BF92CF92DF92EF92FF9280
:1008B000CF93DF93CDB7DEB72A970FB6F894DEBF9C
:1008C0000FBECDBF6B017C015A87498720EA36E80D
:1008D00041E050E00E94683049015A0160E679E742
:1008E0008EEF9FEF0E944430C60ED71EE81EF91E01
:1008F000C701B60120E137E240E050E00E946830D5
:1009000029013A0120E137E2249DC001259D900D87
:10091000349D900D1124C81AD90AE108F108C701C5
:10092000B60128EE33E040E050E00E9468302983B1
:100930003A834B835C8328EE33E049815A81249FBC
:10094000C001259F900D349F900D1124C81AD90A1B
:10095000E108F108C701B60124E630E040E050E0CC
:100960000E9468302D833E834F83588724E6ED81B3
:10097000FE812E9FC0012F9F900D1124C81AD90A05
:10098000E108F108C701B6012AE030E040E050E09C
:100990000E946830F401E75AFD4F8081E985FA85AD
:1009A0008083F201E75AFD4F8081E985FA858183D2
:1009B000E981FA81E75AFD4F8081E985FA858283D2
:1009C0008EE28383ED81FE81E75AFD4F8081E985C8
:1009D000FA858483F901E75AFD4F8081E985FA851C
:1009E00085836AE0629FC001639F900D1124A70177
:1009F0009601281B390B41095109F901E75AFD4FAE
:100A00008081E985FA85868380E2878310862A962D
:100A10000FB6F894DEBF0FBECDBFDF91CF91FF9030
:100A2000EF90DF90CF90BF90AF909F908F907F908E
:100A30006F905F904F90089560917F038EE00C94CB
:100A400088188F929F92AF92BF92CF92DF92EF92CF
:100A5000FF926B017C0180917D03882309F4F6C02D
:100A600080917E0381114DC0D701C601805A904804
:100A7000A240B10980319742A105B10540F460E080
:100A800088E00E94881860E08BE00E948818D701F7
:100A9000C60180599945A240B10980319742A1050C
:100AA000B10540F460E088E00E94881861E08BE0C6
:100AB0000E948818D701C60180589243A240B1090C
:100AC00080319742A105B10540F461E088E00E94C1
:100AD000881860E08BE00E948818D701C601805713
:100AE0009B40A240B109803E9E42A105B10548F558
:100AF00061E088E00E94881861E08BE00E9488181D
:100B000020C0813069F5D701C601805A954EA640B4
:100B1000B10980359644A105B10540F460E088E054
:100B20000E94881860E08BE00E948818D701C601F7
:100B3000805B9F48A640B109803F9545A105B1055E
:100B4000B8F280917E0381110BC0809192038111D4
:100B500012C088ECC80E8FEAD81EE11CF11C20C020
:100B600080919203811107C028ECC21A2FEAD20AA1
:100B7000E108F10815C0813099F44091A405209155
:100B8000A2053091A3054203C001439F900D11249B
:100B9000092E000CAA0BBB0BC80ED91EEA1EFB1EA9
:100BA000C701B6010E94BE2E20E030E048E451E4C7
:100BB0000E943F316B017C0120E030E040EA52E4CA
:100BC0000E943F310E94B1314B015C0160E080E145
:100BD0000E9488186EE080E094E00E947A0261E052
:100BE00081E090E00E947A020E946C026AE0C401F7
:100BF0000E947A0280E5889DB001899D700D1124C4
:100C0000072E000C880B990B0E94C02E9B01AC0193
:100C1000C701B6010E94D2300E94B131DC01CB0184
:100C200067E00E947A0261E080E090E00E947A0230
:100C30000E946C0261E080E1FF90EF90DF90CF9026
:100C4000BF90AF909F908F900C948818FF90EF907A
:100C5000DF90CF90BF90AF909F908F900895CF93EB
:100C6000DF93EC018DE00E94440F2197F9F480910D
:100C700092038130B1F4E091A50584E0E89FF00192
:100C80001124E75FFD4F60817181828193810E9411
:100C9000B83120E030E0A90183E0DF91CF910C94DE
:100CA000CB0F83E0DF91CF910C94440FDF91CF9174
:100CB0000895CF92DF92EF92FF920F931F93CF93FD
:100CC00020919203213009F449C08C0183E00E94F5
:100CD000440FC0911D010130110529F42C2F30E083
:100CE00040E050E024C00230110559F42C2F30E0D0
:100CF000220F331F032E000C440B550B60E971E0EB
:100D000018C003301105C1F4CC2ED12CE12CF12CEC
:100D1000A701960168E572E08DE00E94CB0F68ECB8
:100D200070E080E090E00E941519A701960168EE3E
:100D300073E08DE00E94CB0F6C2F70E080E090E0BC
:100D40000E9415198091A60590E0CF911F910F91F7
:100D5000FF90EF90DF90CF900C942F06CF911F91D2
:100D60000F91FF90EF90DF90CF900895CF92DF9298
:100D7000EF92FF920F931F93CF93DF93FC01C181FA
:100D80000C2E000CDD0BE097A0810A2E000CBB0B93
:100D9000D09720EA36E841E050E00E94B6306B017F
:100DA0007C0120E137E2DE010E94AF30AB01BC01E3
:100DB0004C0D5D1D6E1D7F1D2281022E000C330B1C
:100DC00020533109A8EEB3E02A9FC0012B9F900D5C
:100DD0003A9F900D1124092E000CAA0BBB0B480F53
:100DE000591F6A1F7B1F2481022E000C330B2053D6
:100DF0003109A4E6A29FC001A39F900D1124092EE2
:100E0000000CAA0BBB0B480F591F6A1F7B1F2581C3
:100E1000022E000C330B20533109AAE0A29FC0011F
:100E2000A39F900D1124092E000CAA0BBB0B480F99
:100E3000591F6A1F7B1F8681082E000C990BC097D3
:100E4000092E000CAA0BBB0B8A019B01080F191F6E
:100E50002A1F3B1FC901B80100939D0510939E05F1
:100E600020939F053093A00520917E03211137C068
:100E70000E94BE2E6B017C016091040170910501FE
:100E800080E090E00E94BE2E20E030E048E451E493
:100E90000E941F2F9B01AC01D1E0C701B6010E9447
:100EA000E73187FDD0E0609106017091070180E095
:100EB00090E00E94BE2E20E030E048E451E40E9421
:100EC0001F2F9B01AC01C1E0C701B6010E94B92EE2
:100ED00018160CF4C0E08D2F8C2371F014C0213053
:100EE00059F4DC01CB0180589A41A640B109803306
:100EF0009B40A140B10530F082E090E00E9459068D
:100F000080E001C081E0DF91CF911F910F91FF90B0
:100F1000EF90DF90CF9008958F929F92AF92BF9203
:100F2000CF92DF92EF92FF920F931F93CF93DF93B5
:100F30006C0183E0EEEAF3E0DF011D928A95E9F7A8
:100F4000C0E6D3E005EB13E05601E12CF12C812C37
:100F5000912CF60101900020E9F73197EC19FD0979
:100F6000E815F90509F458C0B8E08B16910409F4A6
:100F700053C0F50181915F01082E000C990B0E946E
:100F8000DD33BC0187ED91E00E94EE33009719F04C
:100F9000875D914001C080E093E0899FF0011124BA
:100FA000EC5BFE4F2081D8018C91282B2883918106
:100FB00011968C911197982B998312968C91882079
:100FC00019F03B813F70832B3281832B8A832093DE
:100FD000AE039093AF038A818093B00388E30E94AD
:100FE000861584EE90E00E94FC14C7010E94FC1458
:100FF00043E050E06EEA73E08DE695E00E94700DEC
:101000000E942A15BFEF8B1A9B0A2396E5E0EE0E8D
:10101000F11C0D5F1F4F9DCFDF91CF911F910F915D
:10102000FF90EF90DF90CF90BF90AF909F908F9008
:1010300008950F931F93CF93DF93CDB7DEB7289713
:101040000FB6F894DEBF0FBECDBF660F771F660FD9
:10105000771FFB01E75FFD4F608171818281938182
:101060008E010F5F1F4F21E047E00E94F62B19868B
:10107000C8010E948C0728960FB6F894DEBF0FBEF9
:10108000CDBFDF91CF911F910F9108950F931F93C3
:10109000CF93DF93CDB7DEB728970FB6F894DEBFB6
:1010A0000FBECDBF873F26E2920710F087EF96E292
:1010B000BC0180E090E00E94BE2E8E010F5F1F4FAA
:1010C00020E047E00E94F62B1986C8010E948C0799
:1010D00028960FB6F894DEBF0FBECDBFDF91CF913B
:1010E0001F910F9108959C011092B5031092B603C1
:1010F0001092B7031092B8031092B9031092CA036A
:101100001092CB031092CC038091100190911101A9
:10111000892B21F481E08093B40302C01092B403C0
:101120008091010190910201892B21F081E080934F
:10113000B30302C01092B30380917F03811104C0F6
:1011400081E08093B20302C01092B2039091A60591
:10115000913019F49093B10302C01092B1038091C1
:10116000B403882319F080E88093B7038091B30318
:10117000882319F080E88093B9038091B203882313
:1011800019F080E28093CC038091B103882329F089
:101190009091CC0390619093CC039091A4059F3FD4
:1011A00011F480E203C0913031F485E28093CA03E8
:1011B00080E48093CB03C9010C948C074F925F921B
:1011C0006F927F928F929F92AF92BF92CF92DF9257
:1011D000EF92FF9280E8C82E82E3D82E82E0E82EBC
:1011E000F12C89E1C80ED11CE11CF11CC701B6012C
:1011F0000E94BE2E2B013C0160910A0170910B01EF
:1012000080E090E00E94BE2E20E030E048E451E40F
:101210000E941F2F4B015C019B01AC01C301B20175
:101220000E94E731609108017091090187FD0BC0B0
:1012300080E090E00E94BE2E20E030E048E451E4DF
:101240000E941F2F14C080E090E00E94BE2E20E07C
:1012500030E048E451E40E941F2F9B01AC01C30120
:10126000B2010E94B92E181634F0C501B4010E94D3
:10127000B8316B017C0140E853E0C701B6010E9420
:101280004C0480E893E00E94B60680937D03609151
:101290009D0570919E0580919F059091A0050E94EB
:1012A000210580E893E00E94730864E670E080E026
:1012B00090E00E94151982E00E945F18809312014D
:1012C000882329F00E947203892B09F48ACFFF90AA
:1012D000EF90DF90CF90BF90AF909F908F907F90D6
:1012E0006F905F904F900895FF920F931F93CF934D
:1012F000DF93EC01F62E08811981C8010E94DD2FD1
:10130000F81621F06F2DC8010E94E52FCE01DF9164
:10131000CF911F910F91FF9008950F931F93CF933B
:10132000DF93CDB7DEB7A0970FB6F894DEBF0FBE40
:10133000CDBF6FE780E090E00E94D11463E081E0D0
:1013400090E00E94D11460E082E090E00E94D1140D
:1013500060E070E081E995E00E94720EFC0160811E
:1013600083E090E00E94D11461E070E081E995E0B3
:101370000E94720EFC01608184E090E00E94D11412
:1013800062E070E081E995E00E94720EFC016081EC
:1013900085E090E00E94D11463E070E081E995E07F
:1013A0000E94720EFC01608186E090E00E94D114E0
:1013B00064E070E081E995E00E94720EFC016081BA
:1013C00087E090E00E94D11465E070E081E995E04B
:1013D0000E94720EFC01608188E090E00E94D114AE
:1013E00064E589E090E00E94D11461E48AE090E035
:1013F0000E94D1146DE48BE090E00E94D11463E56B
:101400008CE090E00E94D11461E48DE090E00E94B5
:10141000D11464E58EE090E00E94D11460E28FE088
:1014200090E00E94D11460E280E190E00E94D1142B
:1014300060917E0381E190E00E94D1140E942E040D
:101440008FEF8C8B88E08D8B1E8A80917E038111BB
:101450000DC080EC98E3A2E0B0E08D879E87AF8757
:10146000B88B88E592E09B8B8A8B0CC080EB9DE16A
:101470009B8B8A8B8CE59DE9A6E0B0E08D879E87EB
:10148000AF87B88BBE01635F7F4F82E390E00E941D
:101490006B148CE0E8E3F1E0DE01119601900D920F
:1014A0008A95E1F7CE0101960E94011518A288E7FE
:1014B0009DE2988F8F8B88E1898F88E08A8F81E009
:1014C0008B8F8BE48C8F8EE48D8F8CE48E8F80E2FB
:1014D0008F8F04E610E0BE01695E7F4FC8010E9455
:1014E0006B14065F1F4F0835F2E01F07A1F7A096A7
:1014F0000FB6F894DEBF0FBECDBFDF91CF911F9125
:101500000F9108958F929F92AF92BF92CF92DF92E8
:10151000EF92FF920F931F93CF93DF9300D000D0F1
:1015200000D0CDB7DEB7F82E4A015B0160E873E06A
:1015300089E893E00E94F9331092A40581E080933A
:10154000920340E853E0C501B4010E944C0480E8D6
:1015500093E00E94B60680937D0360919D05709193
:101560009E0580919F059091A0050E94210580E82D
:1015700093E00E94730861E085E00E94881883E090
:101580000E94440F6CE271E080E090E00E94151927
:1015900004E610E060E08EE70E9427030150110985
:1015A000C9F78FEF9FEF909315018093140100E22C
:1015B00013E0F80181918F0161E0880F0E942703F9
:1015C000F3E006321F07A9F761E080E60E942703D7
:1015D000E0908F0500E010E0CE2C0E2C000CDD0812
:1015E0000C151D0574F4B8018BE895E00E94720E8D
:1015F000FC01808161E0880F0E9427030F5F1F4F6D
:10160000EFCFF5E0FE1594F000E010E086E090E00A
:101610009C012C193D0969010C151D053CF461E084
:1016200080E40E9427030F5F1F4FF6CF61E082E73F
:101630000E94270307E213E0F80181918F0161E026
:10164000880F0E942703F3E00C321F07A9F761E01F
:1016500080E40E94270361E083E60E94270361E0A3
:1016600083E00E94270361E080EF0E94270331E0BE
:10167000F31233C061E081E20E94270300918305E9
:10168000109184056FE775E0CE0101960E94150F59
:10169000B801CE0101960E94C916CE0101960E94A2
:1016A000100F61E08EE30E94270300917D051091E9
:1016B0007E0569E775E0CE0101960E94150FB8011D
:1016C000CE0101960E94C916CE0101960E94100F0C
:1016D00061E08FE20E94270352C022E0F21203C0B1
:1016E00061E08EE337C033E0F31249C061E081E28C
:1016F0000E94270300918305109184056FE775E030
:10170000CE0101960E94150FB801CE0101960E94EC
:10171000C916CE0101960E94100F61E08EE30E946F
:10172000270300917D0510917E0569E775E0CE01E4
:1017300001960E94150FB801CE0101960E94C916AC
:10174000CE0101960E94100F61E08FE20E942703F4
:1017500061E080E20E9427030091890510918A05CB
:1017600065E875E0CE0101960E94150FB801CE0123
:1017700001960E94C916CE0101960E94100F809119
:1017800014011091150161E080950E94270361E02A
:10179000812F80950E94270360E08EE70E94270337
:1017A00060E08EE70E94270360E08EE70E94270337
:1017B00060E085E00E9488181092920369E873E067
:1017C00080E893E00E94F93380E893E00E94B60637
:1017D00080937D0360919D0570919E0580919F058A
:1017E0009091A0050E94210526960FB6F894DEBFC1
:1017F0000FBECDBFDF91CF911F910F91FF90EF9062
:10180000DF90CF90BF90AF909F908F9008950895F4
:10181000CF92DF92EF92FF920F931F93CF93DF93BC
:101820006C017A018B01C0E0D0E0CE15DF0581F0BC
:10183000D8016D918D01D601ED91FC910190F0815F
:10184000E02DC6010995892B11F02196EECF7E017E
:10185000C701DF91CF911F910F91FF90EF90DF9023
:10186000CF900895FC01538D448D252F30E0842FB7
:1018700090E0821B930B541710F0CF9608950197B8
:101880000895FC01918D828D981761F0828DDF01A2
:10189000A80FB11D5D968C91928D9F5F9F73928F63
:1018A00090E008958FEF9FEF0895FC01918D828D58
:1018B000981731F0828DE80FF11D858D90E0089525
:1018C0008FEF9FEF0895FC01918D228D892F90E07D
:1018D000805C9F4F821B91098F739927089580ED3B
:1018E00094E00E94630C21E0892B09F420E0822F10
:1018F0000895FC01848DDF01A80FB11DA35ABF4FCD
:101900002C91848D90E001968F739927848FA689FE
:10191000B7892C93A089B1898C91837080648C9352
:10192000938D848D981306C00288F389E02D808101
:101930008F7D80830895EF92FF920F931F93CF9333
:10194000DF93EC0181E0888F9B8D8C8D981305C00F
:10195000E889F989808185FD26C0F62E0B8D10E07F
:101960000F5F1F4F0F731127E02E8C8DE8120CC0F4
:101970000FB607FCFACFE889F989808185FFF5CF9A
:10198000CE010E94790CF1CF8B8DFE01E80FF11D85
:10199000E35AFF4FF0829FB7F8940B8FEA89FB89D7
:1019A000808180620AC09FB7F894EE89FF896083C6
:1019B000E889F98980818370806480839FBF81E09A
:1019C00090E0DF91CF911F910F91FF90EF900895DC
:1019D000CF93DF93EC01888D8823C9F0EA89FB89D6
:1019E000808185FD05C0A889B9898C9186FD0FC0CD
:1019F0000FB607FCF5CF808185FFF2CFA889B989A2
:101A00008C9185FFEDCFCE010E94790CE7CFDF915D
:101A1000CF9108950E946F0C81110C94DC020895FF
:101A200085ED8093BC008091BC0084FDFCCF1092BA
:101A3000AC04089540912F04262F30E0240F311D6F
:101A400021323105DCF42091AC042430C9F4FC01CE
:101A500080E090E0861758F430912F042191DC014A
:101A6000A15FBB4FA30FB11D2C930196F3CF8091C3
:101A70002F04680F60932F0480E0089581E008959B
:101A800082E00895089508950895E0916504809195
:101A90006404E81730F4F0E0EA59FB4F808190E0ED
:101AA00008958FEF9FEF08959091650480916404ED
:101AB000981750F4E92FF0E0EA59FB4F208130E00D
:101AC0009F5F9093650402C02FEF3FEFC901089517
:101AD0008091640490E020916504821B910908952F
:101AE000CF92DF92EF92FF920F931F93CF93DF93EA
:101AF0007C01CB018A012091AD04222389F0EB0106
:101B00006B01C40ED51ECC15DD0569F06991D701B6
:101B1000ED91FC910190F081E02DC7010995F3CF83
:101B2000642F0E941A0DC801DF91CF911F910F9170
:101B3000FF90EF90DF90CF900895CF93DF931F92A7
:101B4000CDB7DEB769832091AD042223D1F0209177
:101B5000CF04203240F021E030E0FC0133832283C7
:101B600080E090E015C08091AE04E82FF0E0E155F0
:101B7000FB4F998190838F5F8093AE048093CF0455
:101B800005C061E0CE0101960E941A0D81E090E04F
:101B90000F90DF91CF91089520917A0330917B03CC
:101BA0002817390771F49091780380917903981779
:101BB00041F0E0917803F0E0E153FC4F808190E048
:101BC00008958FEF9FEF08951F93CF93DF93DC016C
:101BD0005C968D919C915D97009739F421E030E0FF
:101BE00013963C932E9312973BC05196ED91FC9126
:101BF000529750962C915097322F30951FB75E9682
:101C00004C915E97742F727041FD6095F8944081FD
:101C1000772311F0422B01C043234083EC0121972D
:101C2000F1F748E0508160FF02C0522B01C05323FE
:101C30005083EC012197F1F76695415099F7808127
:101C4000772319F08323808302C0282B20831FBFB2
:101C50005C968D919C915D970197F1F781E090E002
:101C6000DF91CF911F91089520917A0330917B03EA
:101C70002817390771F4809179032091780390E057
:101C8000805C9F4F821B910960E470E00E94543099
:101C9000089580E090E0089520917A0330917B03CD
:101CA00028173907B9F49091780380917903981730
:101CB00089F0E0917803F0E0E153FC4F80812091BE
:101CC000780330E02F5F3F4F2F7333272093780343
:101CD00090E008958FEF9FEF089580E090E00895E1
:101CE0000E94D833FC01248135816217730720F4E8
:101CF00080819181009729F41092630483E694E037
:101D00000895860F971F08950F931F93CF93DF9326
:101D10008C01EB01FC0180819181009739F0688191
:101D2000798161157105A1F40E94893288819981B8
:101D3000F801918380838A819B81938382838C8144
:101D40009D8195838483198218821B821A820FC019
:101D5000F801428153812C813D814217530720F3C2
:101D60000E94F9338C819D81F801958384831D82C3
:101D70001C82DF91CF911F910F9108950F931F93B4
:101D8000CF93DF93EC0188819981009729F02A8114
:101D90003B812617370788F48B016F5F7F4F0E94C6
:101DA0001233009761F0998388831B830A832C8107
:101DB0003D81232B11F4FC01108281E001C080E001
:101DC000DF91CF911F910F910895EF92FF920F93A2
:101DD0001F93CF93DF93EC017B018A01BA010E942C
:101DE000BE0E2881398181110DC02115310519F0F0
:101DF000C9010E948932198218821D821C821B82AD
:101E00001A8206C01D830C83B701C9010E94F933F1
:101E1000CE01DF91CF911F910F91FF90EF90089528
:101E2000FC01808191810C948932FB01DC011196C7
:101E30001C921E9213961C921E92129715961C923B
:101E40001E9214978617970749F06081718161157A
:101E5000710521F0448155810C94E50E0895FC0133
:101E6000118210821382128215821482611571050B
:101E700051F0FB0101900020E9F73197AF01461BBB
:101E8000570B0C94E50E089590911601891324C008
:101E9000E4E2F4E0E4919FEF90931601E130B9F0B1
:101EA00098F0E230C9F4909170009D7F909370009B
:101EB00091E09093B0009091B100987F94609093DE
:101EC000B1001092B30008C010926E0005C090914E
:101ED0006F009D7F90936F0060E00C9488181F92B4
:101EE0000F920FB60F9211242F933F934F935F934E
:101EF0006F937F938F939F93AF93BF93EF93FF93D2
:101F000080915F0490916004A0916104B09162049B
:101F1000892B8A2B8B2B51F190915E04E0915C040C
:101F2000F0915D0480818927808380915F04909186
:101F30006004A0916104B0916204181619061A0693
:101F40001B06C4F480915F0490916004A091610429
:101F5000B09162040197A109B10980935F04909345
:101F60006004A0936104B093620404C080911601E0
:101F70000E94440FFF91EF91BF91AF919F918F917C
:101F80007F916F915F914F913F912F910F900FBE75
:101F90000F901F9018954F925F926F927F928F9241
:101FA0009F92AF92BF92CF92DF92EF92FF920F93E8
:101FB0001F93CF93DF9300D000D01F92CDB7DEB731
:101FC0008B0129013A0190911601891721F09F3F59
:101FD00009F045C205C0E4E2F4E024912D837CC001
:101FE00080931601E4E2F4E094919D839F3F09F40D
:101FF00036C2913009F449C058F1923009F06CC0F2
:102000001092B0001092B1009091B0009260909345
:10201000B0009091B10091609093B100282F30E012
:10202000F901ED5BFB4FE491F0E0EE0FFF1FE15D86
:10203000FB4F4591549150935D0440935C04F9012A
:10204000E95AFB4FE491E0935E0492E09D8303C262
:1020500014BC15BC94B5926094BD95B5916095BDC6
:10206000282F30E0F901ED5BFB4FE491F0E0EE0F3B
:10207000FF1FE15DFB4F45915491F901E95AFB4F78
:10208000E491E09353041D82E6C110928000109207
:1020900081009091810098609093810090918100DF
:1020A000916090938100282F30E0F901ED5BFB4FA8
:1020B000E491F0E0EE0FFF1FE15DFB4F459154917D
:1020C000F901E95AFB4FE491E093520461E00E9468
:1020D000B71821E02D8389C02D8127FDC0C161E0A3
:1020E0000E94B7188D818D7F09F07FC04801A12C17
:1020F000B12C60E072E18AE790E0A50194010E94B2
:102100008A3029833A834B835C8369017A0181E0B9
:10211000C81AD108E108F1089FEFC916D104E104FB
:10212000F10409F008F44EC060E472E48FE090E03E
:10213000A50194010E948A3069017A0181E0C81AE0
:10214000D108E108F1089D81923009F52FEFC21600
:10215000D104E104F10409F008F444C160E970ED30
:1021600083E090E0A50194010E948A3069017A0120
:1021700081E0C81AD108E108F1089FEFC916D1041F
:10218000E104F10411F008F0BAC083E027C02FEF9A
:10219000C216D104E104F104B9F0B0F068E478EEBD
:1021A00081E090E0A50194010E948A3069017A01E2
:1021B00081E0C81AD108E108F1089D81992309F44A
:1021C00013C1DCC081E001C082E09D81911106C095
:1021D00095B5987F892B85BD44C085E09091B1006D
:1021E000987F892B8093B1003CC04801A12CB12C71
:1021F00060E072E18AE790E0A50194010E948A30D4
:1022000069017A0181E0C81AD108E108F108C11416
:10221000D10491E0E906F10488F068E478EE81E009
:1022200090E0A50194010E948A3069017A0181E061
:10223000C81AD108E108F10883E001C081E09D815E
:10224000913079F490918100987F892B809381005F
:10225000411451046104710449F42FEF3FEFA901C7
:102260002CC0411451046104710471F0D801AA0F0B
:10227000BB1FA30192010E94F32F28EE33E040E040
:1022800050E00E94683003C02FEF3FEFA9018D811D
:10229000813099F0823019F18111E1C0C7BC2093DF
:1022A00058043093590440935A0450935B0480912E
:1022B0006E00826080936E00D2C0D0928900C0927E
:1022C000880020935404309355044093560450934F
:1022D000570480916F00826080936F00C0C0C092ED
:1022E000B30020935F0430936004409361045093E3
:1022F000620480917000826080937000B0C068E4D6
:1023000078EE81E090E0A50194010E948A30690195
:102310007A0191E0C91AD108E108F1082FEFC2163D
:10232000D104E104F10441F138F164E274EF80E09A
:1023300090E0A50194010E948A3069017A0181E050
:10234000C81AD108E108F1089FEFC916D104E104C9
:10235000F10409F008F441CF62E17AE780E090E00F
:10236000A50194010E948A3069017A0181E0C81AAE
:10237000D108E108F10819C084E030CF2FEFC21670
:10238000D104E104F10409F008F463C062E17AE7E2
:1023900080E090E0A50194010E948A3069017A01F1
:1023A00091E0C91AD108E108F1088FEFC816D104ED
:1023B000E104F104A9F0A0F089819A81AB81BC818C
:1023C0002AE0B595A795979587952A95D1F76C0141
:1023D0007D0121E0C21AD108E108F10887E0FECEB4
:1023E00086E0FCCE82E0FACE8FEFC816D104E1047D
:1023F000F10469F160F162E17AE780E090E0A50123
:1024000094010E948A3069017A0191E0C91AD108C9
:10241000E108F1082FEFC216D104E104F104A9F09C
:10242000A0F089819A81AB81BC813AE0B595A795EE
:10243000979587953A95D1F76C017D0121E0C21AF5
:10244000D108E108F10885E0C3CE84E0C1CE83E085
:10245000BFCE84E0BACE61E00E94B71847CE0F909D
:102460000F900F900F900F90DF91CF911F910F91D0
:10247000FF90EF90DF90CF90BF90AF909F908F90A4
:102480007F906F905F904F9008951F920F920FB6BC
:102490000F9211242F933F934F935F936F937F93EA
:1024A0008F939F93AF93BF93EF93FF9380ED94E04F
:1024B0000E94790CFF91EF91BF91AF919F918F9105
:1024C0007F916F915F914F913F912F910F900FBE30
:1024D0000F901F9018951F920F920FB60F92112414
:1024E0002F938F939F93EF93FF93E091E004F091EC
:1024F000E1048081E091E604F091E70482FD12C0DE
:1025000090818091E9048F5F8F732091EA04821794
:1025100051F0E091E904F0E0E053FB4F958F809398
:10252000E90401C08081FF91EF919F918F912F91DC
:102530000F900FBE0F901F9018951F920F920FB61D
:102540000F9211242F933F934F935F936F937F9339
:102550008F939F93AF93BF93EF93FF938091B900B5
:10256000887F803609F49CC068F5883209F45BC026
:1025700090F4803109F454C038F4882309F4F6C08B
:10258000883009F44DC0F6C0883109F44CC080325F
:1025900009F45DC0EFC0803409F468C048F48033AA
:1025A00009F455C0883309F0E5C08093AA04D8C067
:1025B000803509F44FC0883509F45DC0883409F0CE
:1025C000D9C0D6C0883909F4C7C0A8F4883709F43F
:1025D00067C038F4883609F463C0803709F460C0F6
:1025E000C9C0883809F4B8C0803909F45FC08038A0
:1025F00009F0C0C05BC0803B09F486C038F4803A63
:1026000009F466C0883A09F47FC0B4C0803C09F47C
:10261000A7C0883C09F4A4C0883B09F48AC0AAC0BA
:102620008091870410C09091A9048091A804981704
:1026300070F5E091A90481E08E0F8093A904F0E089
:10264000E857FB4F80818093BB0085EC86C0809368
:10265000AA048EC0E091A90481E08E0F8093A904A2
:102660008091BB00F0E0E857FB4F80839091A90474
:102670008091A8046EC0E091A90481E08E0F809340
:10268000A9048091BB00F0E0E857FB4F8083809164
:10269000AB0481116DC081E08093860484EA61C03F
:1026A00083E08093AC0410925104CFCF8091510409
:1026B000803208F051C0E091510481E08E0F809388
:1026C00051048091BB00F0E0EF5CFB4F8083BDCFF5
:1026D00085EC8093BC001092AC0480915104803250
:1026E00030F4E0915104F0E0EF5CFB4F1082609118
:1026F000510470E0E0915C03F0915D0381E394E0AC
:1027000009951092510436C084E08093AC04109275
:10271000300410922F04E0915E03F0915F0309955D
:1027200080912F04811105C081E080932F041092C5
:102730000F04E091300481E08E0F80933004F0E0CC
:10274000E15FFB4F80818093BB00909130048091CA
:102750002F04981708F479CF85E88093BC000AC04D
:1027600085EC8093BC001092AC0404C01092AA04C3
:102770000E94100DFF91EF91BF91AF919F918F91AA
:102780007F916F915F914F913F912F910F900FBE6D
:102790000F901F9018951F920F920FB60F92112451
:1027A0002F933F934F935F936F937F938F939F9359
:1027B000AF93BF93EF93FF93E0917A03F0917B0384
:1027C000309709F451C0968DA685B785858591FF10
:1027D00004C09C91892329F447C09C91892309F066
:1027E00043C0A389B4899C918589809589238C9362
:1027F000868997890197F1F7608D718DA685B785D8
:10280000558538E020E0CB010197F1F7822F90E069
:1028100095958795282F4C91452309F020683150D4
:1028200091F7868D81FD20958091790390E0019646
:102830008F73992730917803381749F0A091790365
:10284000B0E0A153BC4F2C938093790303C0868DD5
:102850008160868F828D938D0197F1F7A389B4896A
:102860009C918589892B8C93FF91EF91BF91AF91BA
:102870009F918F917F916F915F914F913F912F9198
:102880000F900FBE0F901F901895CF92DF92EF928E
:10289000FF920F931F93CF93DF93EB017B012AE00D
:1028A000E20EF11C8B016C01C61AD70AC601800F1B
:1028B000911F0E94DD2FF80181938F01EE15FF0516
:1028C000A9F7CE01DF91CF911F910F91FF90EF906B
:1028D000DF90CF900895AF92BF92CF92DF92EF92A8
:1028E000FF920F931F93CF93DF9300D0CDB7DEB746
:1028F0008B016B012AE0C20ED11C7B015C01A61A80
:10290000B70AC5018E0D9F1DF70161917F019A8362
:102910008983CE0101960E947409EC14FD0489F7A5
:10292000C8010F900F90DF91CF911F910F91FF90F1
:10293000EF90DF90CF90BF90AF900895AF92BF928D
:10294000CF92DF92EF92FF920F931F93CF93DF937B
:1029500000D0CDB7DEB78B016B0126E0C20ED11CD3
:102960007B015C01A61AB70AC5018E0D9F1DF701F8
:1029700061917F019A838983CE0101960E94740937
:10298000EC14FD0489F7C8010F900F90DF91CF91EF
:102990001F910F91FF90EF90DF90CF90BF90AF907D
:1029A00008950C94E52F833081F028F4813099F05C
:1029B0008230A1F008958730A9F08830B9F08430D2
:1029C000D1F4809180008F7D03C0809180008F774B
:1029D00080938000089584B58F7702C084B58F7D81
:1029E00084BD08958091B0008F7703C08091B000BE
:1029F0008F7D8093B0000895682F8DE695E00C944C
:102A00009D0DCF92DF92EF92FF920F931F93CF9382
:102A1000DF9300D0CDB7DEB76C017C0104E510E098
:102A2000F70161917F011A830983CE0101960E940B
:102A300074090F5F1F4F0036110591F7C6010F9003
:102A40000F90DF91CF911F910F91FF90EF90DF904A
:102A5000CF9008953091CF04313208F04BC080916F
:102A6000AC048111FCCF9091A70522E02093AC0427
:102A700021E02093AB042FEF2093AA041092A90425
:102A80003093A804EFEAF4E0A8E8B4E020E03217BD
:102A900021F041914D932F5FFACF1092870420913E
:102AA0008704990F922B909387049091860491301C
:102AB00061F410928604909187049093BB009091EA
:102AC000BC0093FDF8CF95EC01C095EE9093BC004F
:102AD0009091AC049230E1F39091AA049F3F79F079
:102AE0008091AA04803241F08091AA04803331F0B1
:102AF00084E005C081E003C082E001C083E0109261
:102B0000AE041092CF041092AD04089591E090931A
:102B1000AD048093A7051092AE041092CF040895DF
:102B2000009769F0FC0101900020E9F73197AF01AF
:102B3000481B590BBC0180ED94E00C94080C80E01C
:102B400090E008958F929F92AF92BF920F931F9340
:102B5000CF93DF93CDB7DEB7A1970FB6F894DEBF62
:102B60000FBECDBF19A2423008F44AE08E010F5DBE
:102B70001F4F842E912CA12CB12CA50194010E94F1
:102B80006830E62FB901CA0101501109EA3014F486
:102B9000E05D01C0E95CD801EC93232B242B252BAD
:102BA00061F7C8010E949015A1960FB6F894DEBF98
:102BB0000FBECDBFDF91CF911F910F91BF90AF900E
:102BC0009F908F900895CF92DF92EF92FF92CF93D4
:102BD000DF936C01990FEE08FF08F7FE19C06DE254
:102BE00080ED94E00E949B0CEC0166277727CB01D7
:102BF0006C197D098E099F094AE00E94A2158C0F6D
:102C00009D1FDF91CF91FF90EF90DF90CF900895BF
:102C10004AE0C701B601DF91CF91FF90EF90DF90BE
:102C2000CF900C94A215FC01448155816081718183
:102C300080ED94E00C94080CCF92DF92EF92FF921B
:102C40000F931F93CF93DF937C016B01623071056B
:102C500028F48B0182E0C82ED12C02C002E010E0E3
:102C600062EE72E0C7010E942F0FC0919B05D091C8
:102C70009C050C171D07B0F5CC16DD0608F4E6011F
:102C8000E0919705F0919805EC0FFD1FD080108220
:102C90006091970570919805600F711F611571051E
:102CA00061F0FB0101900020E9F73197AF01461B6D
:102CB000570BC7010E94E50E0EC0F701808191817C
:102CC000009711F00E948932F7011182108215825B
:102CD0001482138212828091970590919805C80FF3
:102CE000D91FD882C701DF91CF911F910F91FF901B
:102CF000EF90DF90CF900895EF92FF920F931F9384
:102D0000CF93DF93CDB7DEB7C058D1090FB6F89493
:102D1000DEBF0FBECDBF40E850E0C557DF4F688132
:102D20007981CB58D0408E010F5F1F4FC8010E94A0
:102D30005B2CC158DF4F1882CF57D040F80101906B
:102D40000020E9F77F01F80101900020E9F7B801C0
:102D50006E1B7F0B60587F4F9E0123573F4FA8018A
:102D6000C7010E940034C058DF4F1882C058D040BD
:102D7000C7010E949015C058DF4F0FB6F894DEBF10
:102D80000FBECDBFDF91CF911F910F91FF90EF90BC
:102D90000895EF92FF920F931F93CF93DF938C01CF
:102DA0007B01C0E0D0E0CE15DF055CF4BE01C801B8
:102DB0000E94720E61E0FC0180810E94270321962F
:102DC000F2CFDF91CF911F910F91FF90EF90089577
:102DD0009091AC049111FCCF91E09093AC0490934E
:102DE000AB042FEF2093AA041092A9041092A80418
:102DF0009093870490918704880F892B8093870490
:102E000080918604813061F4109286048091870459
:102E10008093BB008091BC0083FDF8CF85EC01C09E
:102E200085EE8093BC008091AC048130E1F3809109
:102E3000A904811103C09091A90401C091E0E8E8C0
:102E4000F4E0A6E6B4E080E0891721F021912D930B
:102E50008F5FFACF10926504809364040895CF9237
:102E6000DF92EF92FF920F931F93CF93DF93FC01BA
:102E7000EA5AFF4FC081CD3209F431968F0120E02C
:102E800030E0A901D801DD918D0180ED8D0F8A30F0
:102E9000B0F4AAE0B0E00E94F32FCD2EDD0FDD08E4
:102EA000EE08FF08DC01CB018C0D9D1DAE1DBF1D82
:102EB0009C01AD012053310941095109E3CFA4E63A
:102EC000B0E00E94F32FDF01219130ED320F3A3054
:102ED000D0F32E3269F511962C91119730ED320F07
:102EE0003A3030F5022E000C330B205331094AE002
:102EF000429F8001439F100D1124012E000C220BD4
:102F0000330B600F711F821F931F12960C9120EDDF
:102F1000200F2A3068F4002E000C110B0053110909
:102F2000012E000C220B330B600F711F821F931FA9
:102F3000CD3239F490958095709561957F4F8F4F84
:102F40009F4FDF91CF911F910F91FF90EF90DF90F6
:102F5000CF9008954F925F926F927F928F929F923F
:102F6000AF92BF92CF92DF92EF92FF921F93CF93D7
:102F7000DF93EC01CA5ADF4FFE01812C912C5401E2
:102F8000119180ED810F8A30A8F4AAE0B0E0A5018C
:102F900094010E94F32F812E110F9908AA08BB08F3
:102FA000860E971EA81EB91E80E3881A9108A108F4
:102FB000B108E6CFC501B40124E630E040E050E0BE
:102FC0000E9468309B01AC0160EA76E881E090E005
:102FD0000E9444306B017C019E01899190ED980F15
:102FE0009A30D0F38E3221F5E901219680E1482E06
:102FF00087E2582E612C712CA99180ED8A0F8A30BE
:10300000B8F40A2E000CBB0BD097A30192010E94CA
:10301000B630C60ED71EE81EF91EC301B2012AE063
:1030200030E040E050E00E94683029013A01E4CFEE
:10303000C501B40124E630E040E050E00E94683071
:1030400060E472E48FE090E00E9444304B015C0148
:10305000C701B6016D5F7F4F8F4F9F4F26E030E075
:1030600040E050E00E946830C501B401620F731F58
:10307000841F951FDF91CF911F91FF90EF90DF90FC
:10308000CF90BF90AF909F908F907F906F905F9008
:103090004F90089520919B0530919C0582179307CE
:1030A00060F420919705309198052115310529F09C
:1030B000F901E80FF91F8081089580E00895CF930A
:1030C000DF93282F30E0F901E559FB4F8491F90196
:1030D000E95AFB4FD491F901ED5BFB4FC491CC232E
:1030E00091F081110E94D314EC2FF0E0EE0FFF1F3E
:1030F000E75CFB4FA591B491EC91ED2381E090E06A
:1031000021F480E002C080E090E0DF91CF9108954B
:103110001F93CF93DF93282F30E0F901E559FB4F40
:103120008491F901E95AFB4FD491F901ED5BFB4F12
:10313000C491CC23C1F0162F81110E94D314EC2F1F
:10314000F0E0EE0FFF1FE15DFB4FA591B4919FB73B
:10315000F894111104C08C91D095D82302C0EC9141
:10316000DE2BDC939FBFDF91CF911F910895CF930A
:10317000DF9390E0FC01E95AFB4F2491FC01ED5BE9
:10318000FB4F8491882361F190E0880F991FFC0127
:10319000EB5DFB4FC591D491FC01E15DFB4FA59127
:1031A000B491611109C09FB7F8948881209582235A
:1031B0008883EC912E230BC0623061F49FB7F894A2
:1031C0008881322F309583238883EC912E2B2C938A
:1031D0009FBF06C08FB7F894E8812E2B28838FBF3E
:1031E000DF91CF9108958E3008F08E508770806403
:1031F00080937C0080917A00806480937A00809133
:103200007A0086FDFCCF809178002091790090E0D3
:10321000922B08958230910538F0880F991F880FFE
:10322000991F05970197F1F708958F929F92AF929A
:10323000BF92CF92DF92EF92FF926B017C010E94CE
:103240004F194B015C01C114D104E104F104F1F008
:103250000E944F19DC01CB0188199909AA09BB0901
:10326000883E9340A105B10570F321E0C21AD10850
:10327000E108F10888EE880E83E0981EA11CB11CBD
:10328000C114D104E104F10419F7DDCFFF90EF90F0
:10329000DF90CF90BF90AF909F908F9008953FB7F1
:1032A000F8948091AD059091AE05A091AF05B091D5
:1032B000B00526B5A89B05C02F3F19F00196A11DAA
:1032C000B11D3FBFBA2FA92F982F8827820F911DBC
:1032D000A11DB11DBC01CD0142E0660F771F881F03
:1032E000991F4A95D1F708952FB7F8946091A905D1
:1032F0007091AA058091AB059091AC052FBF089500
:103300001F920F920FB60F9211242F933F938F931A
:103310009F93AF93BF938091A9059091AA05A09127
:10332000AB05B091AC053091A80523E0230F2D37F4
:1033300020F40196A11DB11D05C026E8230F0296B9
:10334000A11DB11D2093A8058093A9059093AA05FE
:10335000A093AB05B093AC058091AD059091AE05FF
:10336000A091AF05B091B0050196A11DB11D80934C
:10337000AD059093AE05A093AF05B093B005BF9196
:10338000AF919F918F913F912F910F900FBE0F9012
:103390001F901895CF93DF93CDB7DEB7C05AD109F0
:1033A0000FB6F894DEBF0FBECDBF789484B58260AF
:1033B00084BD84B5816084BD85B5826085BD85B5D9
:1033C000816085BD80916E00816080936E00109257
:1033D00081008091810082608093810080918100D2
:1033E0008160809381008091800081608093800063
:1033F0008091B10084608093B1008091B0008160C1
:103400008093B00080917A00846080937A008091EC
:103410007A00826080937A0080917A008160809344
:103420007A0080917A00806880937A001092C100BF
:1034300060E082E00E94B71861E082E00E94881894
:1034400061E083E00E94B71861E08EE00E94B71847
:1034500060917F038EE00E94881861E086E00E9400
:10346000B71861E086E00E94881861E088E00E9459
:10347000B71861E08BE00E94B71862E08CE00E9410
:10348000B71861E085E00E94B71860E085E00E940F
:10349000881860E084E10E94B71860E085E10E942E
:1034A000B71862E084E00E94B71861E089E00E94EA
:1034B000B71861E08AE00E94B71861E087E00E94D7
:1034C000B71861E080E10E94B71860E089E00E94CF
:1034D000881860E08AE00E94881860E087E00E9417
:1034E0008818F89484E08093680080916D00806172
:1034F00080936D00789464E670E080E090E00E9434
:103500001519E091E004F091E10482E08083E091FC
:10351000DC04F091DD041082E091DE04F091DF0420
:1035200080E180831092E804E091E404F091E504E6
:1035300086E08083E091E204F091E3048081806181
:103540008083E091E204F091E304808188608083CD
:10355000E091E204F091E304808180688083E0914F
:10356000E204F091E30480818F7D808368EC70E059
:1035700087E995E00E94BE0E80E090E00E9425035E
:103580008F3711F00E948D0981E190E00E942503A0
:1035900080937E0381E090E00E942503833011F048
:1035A0000C946D2B82E090E00E94250381110C9415
:1035B0006D2B00E010E0B80185E895E00E94720EE6
:1035C0007C01C80144960E942503D7018C930F5FAC
:1035D0001F4F0C31110579F700E010E0B8018BE8BE
:1035E00095E00E94720E7C01C801CC960E942503D2
:1035F000F70180830F5F1F4F0630110579F782E4D2
:1036000090E00E94250390E09093020180930101D5
:1036100000E010E0B8018FE795E00E94720E7C0197
:10362000C8018D5B9F4F0E942503D7018C930F5FCC
:103630001F4F0830110571F700E010E0B80189E76D
:1036400095E00E94720E7C01C801855B9F4F0E942D
:103650002503F70180830F5F1F4F0830110571F7B5
:1036600085E895E00E9413168CEA92E00E9490157E
:103670006DE975E082E390E00E94451460919D053C
:1036800070919E0580919F059091A00540E853E0C0
:103690000E944C0460E873E089E893E00E94F933EB
:1036A0008091A60590E00E942F06A4E0EA2EA1E0FA
:1036B000FA2E04E510E0C8010E94DD2FD7018D939A
:1036C0007D010F5F1F4F00361105A9F788E1E0E685
:1036D000F3E0DF011D928A95E9F7109265041092DC
:1036E00064041092AE041092CF041092AC0481E0F6
:1036F0008093AB041092860461E082E10E948818F6
:1037000061E083E10E9488188091B9008E7F8093E8
:10371000B9008091B9008D7F8093B90088E48093CF
:10372000B80085E48093BC0082E49DE090935F0341
:1037300080935E0383E49DE090935D0380935C033C
:1037400064E670E080E090E00E94151988E30E9432
:10375000861588ED90E00E94FC1484EE90E00E94B3
:10376000FC1484EF90E00E94FC1480E090E00E9442
:10377000FC1404E110E080E090E00E94FC14015091
:103780001109C9F70E942A1564E670E080E090E014
:103790000E94151988E30E94861588ED90E00E942A
:1037A000FC1484EE90E00E94FC1484EF90E00E94F0
:1037B000FC1480E090E00E94FC1404E110E08FEF24
:1037C00090E00E94FC1401501109C9F70E942A15CB
:1037D00064EF71E080E090E00E94151988E30E9498
:1037E000861588ED90E00E94FC1484EE90E00E9423
:1037F000FC1484EF90E00E94FC1480E090E00E94B2
:10380000FC1404E110E080E090E00E94FC14015000
:103810001109C9F70E942A1564E670E080E090E083
:103820000E94151989E090E00E94250389838AE0AF
:1038300090E00E9425038A838BE090E00E9425039C
:103840008B838CE090E00E9425038C838DE090E0D8
:103850000E9425038D838EE090E00E9425038E83D5
:1038600081E090E00E942503805D8F8382E090E0FC
:103870000E942503805D88871986CE0101960E94EB
:103880008C0768EE73E080E090E00E94151983E0F9
:1038900090E00E942503898384E090E00E94250344
:1038A0008A8385E090E00E9425038B8386E090E088
:1038B0000E9425038C8387E090E00E9425038D837E
:1038C00088E090E00E9425038E8380E28F838887C2
:1038D0001986CE0101960E948C0768EE73E080E0A5
:1038E00090E00E94151980E893E00E94730881E03F
:1038F0008093A60380E893E00E94B60680937D0340
:1039000084E690E09093A5038093A403ECEBFFE79B
:10391000E491EC3B29F082E090E00E945906FBCF55
:103920000E94A6031E01B4E72B0E311C8091AD034B
:1039300081112EC080919203813031F54091A40510
:103940002091A2053091A3054203B001439F700D61
:103950001124AB01770F660B770B80919D05909139
:103960009E05A0919F05B091A0058A019B01080FBB
:10397000191F2A1F3B1FC901B80149E853E00E94E3
:103980004C0489E893E002C080E893E00E94730849
:1039900081E20E94861580EF8093130180911201CD
:1039A000882331F02091100130911101232B69F40B
:1039B00090E790931301811108C01092A90310920F
:1039C000AA031092AB031092AC0380919203813052
:1039D00029F4809113018052809313018091A803F0
:1039E0008823A9F060910C0170910D0180E090E0B6
:1039F0000E94BE2E20E030E048E451E40E941F2FD8
:103A00000E94B831AB01BC0182E00E94820AC090E2
:103A1000A903D090AA03E090AB03F090AC0310EDA3
:103A2000C11617E0D106E104F10428F480911301D6
:103A3000805180931301609113018DE695E00E94FF
:103A40009D0D0E942A1582E00E945F18809312014A
:103A5000811102C060E007C08091100190911101B6
:103A60000197C1F761E086E00E9488188CE00E940F
:103A70005F18182F8093920380910301181761F04B
:103A80001093030160919D0570919E0580919F05A3
:103A90009091A0050E942105113011F461E001C050
:103AA00060E085E00E9488188091A60590E00E9461
:103AB0002F06C701B6016F5F7F4F8F4F9F4F6093F7
:103AC000A9037093AA038093AB039093AC03009176
:103AD00001011091020126E930E040E050E00E942F
:103AE00068306CE3609FC001619F900D1124A0E0DD
:103AF000B0E0281739074A075B07A0F1012B91F1C5
:103B000060910C0170910D0180E090E00E94BE2E4A
:103B100020E030E048E451E40E941F2F0E94B831B9
:103B2000AB01BC0183E00E94820A60910E0170919A
:103B30000F0180E090E00E94BE2E20E030E048E4DB
:103B400051E40E941F2F0E94B831AB01BC0183E0F9
:103B50000E94820A1092A9031092AA031092AB034A
:103B60001092AC0384E00E945F188093A703209119
:103B7000A4033091A50341E09091A603981340E07F
:103B800091E0811190E0942351F0121613063CF459
:103B9000215031093093A5032093A40378C08130CC
:103BA00009F075C0232B09F072C0809100018234A6
:103BB000C1F48FEA92E00E948C0782E08093A30315
:103BC00068EE73E080E090E00E9415196091A50511
:103BD00070E080E090E00E9419088091A505809334
:103BE000A20380910001833539F489EB92E00E94B1
:103BF0008C0781E08093A303809100018F3461F4EE
:103C000083EC92E00E948C0768EE73E080E090E025
:103C10000E9415190E94DE08809100018235D9F4B6
:103C20008DEC92E00E948C0784E08093A30368EE01
:103C300073E080E090E00E9415198091A2059091B8
:103C4000A3050E9446088091A2059091A305909338
:103C5000A1038093A003809100018D3439F487ED96
:103C600092E00E948C0785E08093A30364EF71E0EB
:103C700080E090E00E94151984E690E09093A503FF
:103C80008093A40310929F0381E08093AD03809101
:103C9000A7039091A603891709F4A3C6811104C054
:103CA00081E090E00E9459061092A9031092AA03A5
:103CB0001092AB031092AC0384E690E09093A503BE
:103CC0008093A40380E290E00E94E8168DE695E0E0
:103CD0000E94540D9C0123608FEF90E0821B930B98
:103CE000F3E095958795FA95E1F78031910571F0AC
:103CF0008830910571F08430910571F08230910522
:103D000071F0019779F404E010E00EC000E010E0DB
:103D10000BC001E010E008C002E010E005C003E0C5
:103D200010E002C005E010E00E947203880F991FA6
:103D3000FC01E05DFE4F80819181FC01E00FF11FED
:103D40008081809300019091AD03913009F077C09C
:103D5000883509F439C68A3209F462C024F4833202
:103D600009F44AC06CC0843401F1853509F067C09C
:103D70008091A303843059F48091A2059091A3050A
:103D800049969093A3058093A2050E9446088091CE
:103D9000A303823009F053C08091A5058F5F833162
:103DA00008F083E18093A50519C08091A3038430B6
:103DB00059F48091A2059091A30549979093A3058A
:103DC0008093A2050E9446088091A3038230B9F532
:103DD0008091A505815031F71092A5056091A50548
:103DE00070E080E090E00E9419086DE975E082E3E0
:103DF00090E00E946B1423C08091A303843049F4A7
:103E00008091A0039091A1039093A3058093A205B4
:103E10000DC0823059F48091A2038093A50506C09D
:103E20006DE975E082E390E00E946B1410929F03AD
:103E300088E5809300011092AD031092A303809156
:103E4000AD038111C1C580910001883509F4BCC55D
:103E5000843409F477C074F48A3209F4F0C424F489
:103E6000833209F487C351C58234B9F1833409F42C
:103E7000AFC04BC58235E1F03CF48D3409F479C014
:103E80008F3409F452C041C58335E9F1853509F015
:103E90003CC580919D0590919E05A0919F05B09194
:103EA000A005BC01CD01675E7F4F8F4F9F4F58C06B
:103EB0008091A405811102C081E003C0813021F40A
:103EC0008FEF8093A40502C01092A4056DE975E000
:103ED00082E390E00E946B1477C58091A605811162
:103EE00004C081E08093A60502C01092A6056DE98A
:103EF00075E082E390E00E946B148091A60590E04B
:103F00000E942F0661C58091100190911101892BAB
:103F100039F481E090E0909311018093100154C531
:103F200010921101109210014FC580917F038111F1
:103F300004C081E080937F0302C010927F030E943F
:103F40001C0542C580919D0590919E05A0919F05FD
:103F5000B091A005BC01CD01695171098109910998
:103F600040E853E00E944C0480E893E00E94B606CB
:103F700021C54091A4052091A2053091A3054203DB
:103F8000B001439F700D1124AB01770F660B770BC7
:103F900080919D0590919E05A0919F05B091A005EF
:103FA0008A019B01080F191F2A1F3B1FC901B80175
:103FB00040E853E00E944C048091A405813011F444
:103FC0008FEF03C08F3F81F681E08093A405CCCFB3
:103FD00081E08093920380E09CE3ACE1B6E48093BF
:103FE0009B0390939C03A0939D03B0939E03109218
:103FF0009703109298031092990310929A031092CB
:10400000930310929403109295031092960360E824
:1040100073E089E893E00E94F9331092A4050E94AE
:104020001C0580917E038823A1F028EC3FEA40E044
:1040300050E0C956DF4F288339834A835B83C759D1
:10404000D04008EFC556DF4F0883CB59D04017EA60
:1040500013C028E93AE340E050E0C956DF4F288317
:1040600039834A835B83C759D04000EBC556DF4F85
:104070000883CB59D04016E3C456DF4F1883CC5980
:10408000D04000E010E061E085E00E948818C6564C
:10409000DF4F2881CA59D0402F93C756DF4F388150
:1040A000C959D0403F93C856DF4F4881C859D040C6
:1040B0004F93C956DF4F5881C759D0405F931F9324
:1040C0000F93C456DF4F8881CC59D0408F93C5568B
:1040D000DF4F9881CB59D0409F9389EE92E09F9318
:1040E0008F9380ED94E09F938F930E947C16AAE0BB
:1040F000B0E0C556DF4F2881CB59D040C456DF4FC2
:104100003881CC59D040A8010E94F32FC356DF4F0D
:10411000688379838A839B83CD59D0400FB6F89406
:10412000DEBF0FBECDBFCD56DF4F2883C359D04071
:10413000CC56DF4F3883C459D040CB56DF4F08836D
:10414000C559D040CA56DF4F1883C659D040C9560A
:10415000DF4F288139814A815B81C759D040CD56D4
:10416000DF4F88819981AA81BB81C359D0408217D2
:104170009307A407B5070CF085C140E853E0C35688
:10418000DF4F688179818A819B81CD59D0400E941F
:104190004C0480E893E00E94B60680937D03609112
:1041A0009D0570919E0580919F059091A0050E94AC
:1041B000210580E893E00E947308CA56DF4F98817A
:1041C000C659D0409F93CB56DF4FA881C559D040E8
:1041D000AF93CC56DF4FB881C459D040BF93CD5672
:1041E000DF4FE881C359D040EF9324EE32E03F9394
:1041F0002F9380ED94E09F938F930E947C1664E64A
:1042000070E080E090E00E94151984E10E94F318AC
:104210004C0185E10E94F3185C01B401681B790B25
:10422000072E000C880B990B0E94C02E6B017C019D
:1042300081EE92E00E949015C4010E94E31581EE88
:1042400092E00E949015C5010E94E31581EE92E074
:104250000E9490150FB6F894DEBF0FBECDBFA70128
:104260009601C701B6010E94EC31882319F083EE54
:1042700092E01AC046015701E894B7F82FEF3FEFDC
:104280004FE75FE7C501B4010E94EC3181110FC017
:104290002FEF3FEF4FE75FE7C501B4010E94B92E52
:1042A00018162CF487EE92E00E94901576C02FEF3E
:1042B0003FEF4FE75FE4C701B6010E94E7311816F0
:1042C0001CF48BEE92E0F0CF2FEF3FEF4FE75FEC67
:1042D000C701B6010E94B92E87FDF3CF20E030E080
:1042E000A901C701B6010E94B92E87FF09C06DE27E
:1042F00080ED94E00E949B0CC701B601905802C06B
:10430000C701B6012AE037ED43EA5BE30E94D330F0
:104310002B013C010E94B8314B015C010E94BE2E72
:104320009B01AC01C301B2010E94D2302B013C01C0
:104330004AE0C501B4010E94A2156EE280ED94E04E
:104340000E949B0C20E030E040E251E4C301B20146
:104350000E941F2F2B013C010E94B8314B01A12C60
:10436000B12C4AE0C501B4010E94A215C501B401F7
:104370000E94BE2E9B01AC01C301B2010E94D2304B
:1043800020E030E040E251E40E941F2F0E94B8314B
:1043900080E090E04AE00E94A21582EE92E00E9446
:1043A00090158CEA92E00E94901580909B0390906B
:1043B0009C03A0909D03B0909E03A5019401C701AA
:1043C000B6010E94B92E87FF19C0C0929B03D092FC
:1043D0009C03E0929D03F0929E0380919D05909135
:1043E0009E05A0919F05B091A0058093970390939F
:1043F0009803A0939903B0939A0310C0A501940168
:10440000C701B6010E94B92E811110C080919D058F
:1044100090919E05A0919F05B091A0058093930374
:1044200090939403A0939503B09396030E94720314
:10443000C356DF4F288139814A815B81CD59D040F5
:104440002C593F4F4F4F5F4FC356DF4F288339835F
:104450004A835B83CD59D040892BA1F4CD56DF4FE1
:1044600088819981AA81BB81C359D0400A96A11D38
:10447000B11DCD56DF4F88839983AA83BB83C3596F
:10448000D04065CE60E085E00E948818C656DF4FB8
:104490009881CA59D0409F93C756DF4FA881C95908
:1044A000D040AF93C856DF4FB881C859D040BF93B2
:1044B000C956DF4FE881C759D040EF931F930F9340
:1044C000C456DF4F0881CC59D0400F93C556DF4FFB
:1044D0001881CB59D0401F9386ED92E09F938F9324
:1044E00080ED94E09F938F930E947C160E941C05A0
:1044F000109292034091930350919403609195031D
:10450000709196038091970390919803A0919903DD
:10451000B0919A038A019B01080F191F2A1F3B1FA4
:10452000C901B80122E030E040E050E00E948A304A
:10453000CA01B90140E853E00E944C0480E893E0CE
:104540000E94B60680937D0360919D0570919E0543
:1045500080919F059091A0050E94210580E893E03D
:104560000E9473080E94A6030FB6F894DEBF0FBE28
:10457000CDBF2AC280919F03823009F04EC01091B6
:104580008003110F1056812F880F880F180F9091FC
:1045900081039053190F89E893E00E94B6061B35FA
:1045A00028F082E090E00E94590637C01A86609198
:1045B0009D0570919E0580919F059091A0050E9498
:1045C000BE2E20E030E048E451E40E943F310E94DA
:1045D000B8317A8369838091A2059091A30569E13E
:1045E00070E00E9454306B838091A5058C8380918C
:1045F000A605880F880F9091A405890F8F5F8D8382
:10460000812F880F982F990F990F890F8C59BE0110
:104610006F5F7F4F90E00E946B1480919F03843006
:1046200009F064C100918003F0908103109182032E
:1046300089E893E00E94B606882309F457C1802FC9
:10464000000F990BC09724E6289FA001299F500DC9
:1046500011248F2DFF0C990BC0976AE0689F900181
:10466000699F300D1124240F351F812F110F990BD5
:10467000C0978901080F191F05361105B9F460911B
:104680009D0570919E0580919F059091A0050E94C7
:10469000BE2E20E030E048E451E40E943F310E9409
:1046A000B831709305016093040148C007391105C2
:1046B00039F480EE99E290930501809304013EC0A5
:1046C00006361105B9F460919D0570919E058091A3
:1046D0009F059091A0050E94BE2E20E030E048E4A6
:1046E00051E40E943F310E94B831709307016093FA
:1046F00006013EC00839110539F480E696E390932F
:104700000701809306014FC0093C1105B9F460917F
:104710009D0570919E0580919F059091A0050E9436
:10472000BE2E20E030E048E451E40E943F310E9478
:10473000B83170930B0160930A0169C00A3C1105FE
:10474000B9F460919D0570919E0580919F059091AF
:10475000A0050E94BE2E20E030E048E451E40E9413
:104760003F310E94B83170930B0160930A0157C02A
:104770000D3231E01307B9F460919D0570919E05EB
:1047800080919F059091A0050E94BE2E20E030E010
:1047900048E451E40E943F310E94B83170930D010A
:1047A00060930C0143C00E3241E01407B9F46091EC
:1047B0009D0570919E0580919F059091A0050E9496
:1047C000BE2E20E030E048E451E40E943F310E94D8
:1047D000B83170930F0160930E0128C0083552E084
:1047E0001507A9F460919D0570919E0580919F0524
:1047F0009091A00528EE33E040E050E00E94683040
:1048000070930201609301010E942E040FC0063EC6
:1048100083E0180721F481E080937E0305C0073E02
:10482000134021F410927E030E948D0984E091E0F0
:104830000E94011583E090E00E94590657C08091C4
:104840009F03823009F052C080918003880F805608
:10485000982F990F990F890F909181039053890F89
:104860008B3528F082E090E00E94590645C01A86F8
:10487000880F982F990F990F890F8C59BE016F5F80
:104880007F4F90E00E94451469817A8180E090E03A
:104890000E94BE2E20E030E048E451E40E941F2F29
:1048A0000E94B83160939D0570939E0580939F058B
:1048B0009093A0052B81A9E12A9F900111243093A8
:1048C000A3052093A2052C812093A5052D81322FCD
:1048D000337031503093A40522FB222720F9209316
:1048E000A60540E853E00E944C0406C069E873E066
:1048F00080E893E00E94F93380E893E00E94B606D6
:1049000080937D0310929F0355C020919F03273011
:1049100008F05AC0211111C090E290938003909347
:1049200081039093820390938303909384039093E5
:1049300085039093860390938703E22FF0E0E0587D
:10494000FC4F808381E0820F80939F03833031F49A
:104950008EE2809383032E5F20939F0380919F03B9
:10496000873091F580E893E00E94B606182F809377
:104970007D0310929F0360919D0570919E0580912B
:104980009F059091A0050E942105112339F060E850
:1049900073E089E893E00E94F93316C069E873E098
:1049A00080E893E00E94F93380E893E00E94B60625
:1049B00080937D0360919D0570919E0580919F0578
:1049C0009091A0050E94210580E20E9486158FEF3C
:1049D00090E00E94FC140E942A158091A703809306
:1049E000A60380917C03882309F473C680E090E0DD
:1049F0000E944A188A3011F40E94A60380E090E0D9
:104A00000E944A18833441F582E090E00E944A18DF
:104A1000863569F48DEB91E09F938F9380ED94E060
:104A20009F938F930E947C1610927E030FC0853552
:104A300099F484EB91E09F938F9380ED94E09F93A2
:104A40008F930E947C1681E080937E030E948D09E3
:104A50000F900F900F900F9080E090E00E944A1806
:104A6000813409F568E070E0CE0101960E941C16C1
:104A7000CE0101960E941316CE0101960E94100FDE
:104A800068E070E0CE0101960E941C16BE016F5FC7
:104A90007F4F81E995E00E94840ECE0101960E942D
:104AA000100F0E948D0980E090E00E944A18843522
:104AB00041F586EC91E09F938F9380ED94E09F9376
:104AC0008F930E947C1664E070E0CE0101960E94F4
:104AD0001C1689819A810F900F900F900F9000976C
:104AE00019F00E94342C03C060E070E0CB01709399
:104AF000020160930101CE0101960E94100F0E94F5
:104B00002E0480E090E00E944A188D3499F56EE101
:104B100070E0CE0101960E941C16CE0101960E9403
:104B20001316CE0101960E94100F6EE170E0CE01C7
:104B300001960E941C16BE016F5F7F4F85E895E0CD
:104B40000E94840ECE0101960E94100F85E895E028
:104B50000E9413168CEC91E09F938F9380ED94E06C
:104B60009F938F930E947C160E942E040F900F90AB
:104B70000F900F9080E090E00E944A18833579F5FD
:104B800068E070E0CE0101960E941C16CE010196ED
:104B90000E941316CE0101960E94100F82ED91E043
:104BA0009F938F9380ED94E09F938F930E947C1648
:104BB00068E070E0CE0101960E941C16BE016F5F96
:104BC0007F4F8BE895E00E94840ECE0101960E94F3
:104BD000100F0E942E040F900F900F900F9080E006
:104BE00090E00E944A18883409F05AC086EF91E09C
:104BF0009F938F9380ED94E09F938F930E947C16F8
:104C00000F900F900F900F9054E6752EE12CF12C21
:104C100068ED862E61E0962E00ED14E074EFA72E6D
:104C200071E0B72E1A86BE016F5F7F4F872D90E02F
:104C30000E9445148C811F928F938B811F928F93BA
:104C40008A818F9389818F93FF92EF929F928F92A7
:104C500040EDC42E44E0D42E1F930F930E947C1687
:104C6000BF92AF921F930F930E947C16BFEFEB1A77
:104C7000FB0AEAE07E0E0FB6F894DEBF0FBECDBF92
:104C800034E6E316F10471F68EEE91E09F938F9374
:104C9000DF92CF920E947C160F900F900F900F9092
:104CA00080E090E00E944A188B3409F0D2C080E086
:104CB00090E00E942503F82E81E090E00E942503F9
:104CC000E82E82E090E00E942503D82E83E090E059
:104CD0000E942503D1018C9384E090E00E9425037B
:104CE000F101818385E090E00E942503D1011296B5
:104CF0008C9386E090E00E942503F101838387E096
:104D000090E00E942503D10114968C9388E090E0F6
:104D10000E942503F1018583168289E090E00E94BC
:104D2000250389838AE090E00E9425038A838BE033
:104D300090E00E9425038B838CE090E00E94250385
:104D40008C838DE090E00E9425038D838EE090E0BF
:104D50000E9425038E838FE090E00E9425038F83BD
:104D600080E190E00E9425038887198681E190E028
:104D70000E942503C82E89E892E09F938F9300ED4F
:104D800014E01F930F930E947C161F92CF9221E094
:104D900030E02C0F3D1F3F932F933F922F921F9295
:104DA000DF921F92EF921F92FF928CE492E09F930A
:104DB0008F931F930F930E947C16809109018F930C
:104DC000809108018F9380910B018F9380910A014C
:104DD0008F93809105018F93809104018F9380912F
:104DE00007018F93809106018F9387E292E09F9352
:104DF0008F931F930F930E947C160FB6F894DEBF1B
:104E00000FBECDBF80910F018F9380910E018F93C4
:104E100080910D018F9380910C018F9380910201FD
:104E20008F93809101018F9381E092E09F938F9304
:104E30001F930F930E947C168CEF91E09F938F93AA
:104E40001F930F930E947C160FB6F894DEBF0FBE1F
:104E5000CDBF80E090E00E944A188035C9F490915F
:104E6000A80381E089278093A803882319F083E9A8
:104E700092E002C088E992E09F938F9380ED94E0E6
:104E80009F938F930E947C160F900F900F900F901E
:104E900080E090E00E944A18873409F082C34FEF07
:104EA0005FEFBA0149835A836B837C8319861A8624
:104EB0001B861C868FEF99ECAAE9BBE3898B9A8B42
:104EC000AB8BBC8B898F9A8FAB8FBC8F89A39AA336
:104ED000ABA3BCA389A79AA7ABA7BCA789AB9AAB86
:104EE000ABABBCAB49AF5AAF6BAF7CAF8FEF90E0D1
:104EF00023969FAF8EAF239729964CAF5DAF6EAFD1
:104F00007FAF299761964CAF5DAF6EAF7FAF619772
:104F100066961FAE669767961FAE679782E0A79664
:104F20008FAFA797A8961FAEA897A9961FAEA9976F
:104F3000AA961FAEAA97AE961CAE1DAE1EAE1FAEB1
:104F4000AE97E0961FAE1EAEE097E2961FAE1EAE85
:104F5000E29768961FAE6897D10113961C921E9235
:104F6000129788EE93E0A0E0B0E0F101848395838E
:104F7000A683B78382E291E091838083178A168AA1
:104F8000118E108E138E128E158E148E668D6E7F7E
:104F90006D7F668F6695617081E0682781E10E9470
:104FA000881861E081E10E94B718E8E6F4E0E49136
:104FB000D1015096EC93E4E5F4E0E491F0E0EE0FDB
:104FC000FF1FE15DFB4F85919491F101928B818BE5
:104FD00060E08FE00E94B718D1015E968C9181FD50
:104FE00004C061E08FE00E9488188FE0F10184879F
:104FF000E6E6F4E0E491D1011D96EC931D97E2E51D
:10500000F4E0E491F0E0EE0FFF1FE75CFB4F8591C9
:105010009491F101978786878DE991E0958F848F30
:105020002DEB30E0378B268B2BE931E0318F208F51
:105030002CE231E0338F228F209168002260209390
:1050400068002CE630E0348B238B22E0258B01971F
:10505000F1F75A968D919C915B97892B29F1E091FC
:105060007A03F0917B03E215F305F1F0309739F004
:10507000A389B4899C918589809589238C93F101BA
:10508000868D8E7F868F10927903109278033092EE
:105090007B0320927A030388F489E02D9081D1016B
:1050A00055968C91892B80830E9474196B017C0129
:1050B000C1010E94340E892B09F43DC2C1010E9436
:1050C0004C0E182FAE968CAD9DADAEADBFADAE976C
:1050D0000196A11DB11DAE968CAF9DAFAEAFBFAF17
:1050E000AE97143209F4F5C134F41A3081F01D3052
:1050F00009F003C20CC01A3251F01C3209F0FDC194
:1051000066968FAD6697812766968FAF6697A9964C
:105110008FADA9978F3008F0CAC1E7E5F0E0EC0F3A
:10512000FD1FE80FF11D108267968FAD67978823EA
:1051300009F4CEC068962FAD68973FEB320F822FEF
:10514000022E000C990B363010F4C79707C0215679
:10515000263018F48755910901C0C097282F229551
:10516000207F69963FAD69974FEB430F832F032E46
:10517000000C990B463010F4C79707C031563630F3
:1051800018F48755910901C0C097820F66969FADAC
:105190006697891393C0AA968FADAA97882309F4BE
:1051A00086C1E0968EAD9FADE0970196E0969FAFE9
:1051B0008EAFE0972D968CAD9DADAEADBFAD2D976A
:1051C00029968CAF9DAFAEAFBFAF299765968CADDA
:1051D0009DADAEADBFAD659761968CAF9DAFAEAFE7
:1051E000BFAF6197A7968FADA7978823A1F18130B4
:1051F00009F05DC18D819E81AF81B88589839A83D5
:10520000AB83BC838D859E85AF85B88989879A8756
:10521000AB87BC878D899E89AF89B88D898B9A8B26
:10522000AB8BBC8B8D8D9E8DAF8DB8A1898F9A8FE6
:10523000AB8FBC8F8DA59EA5AFA5B8A989A79AA74E
:10524000ABA7BCA78DA99EA9AFA9B8AD89AB9AABF6
:10525000ABABBCAB2CC18DA19EA1AFA1B8A589A35E
:105260009AA3ABA3BCA38D819E81AF81B8858983AE
:105270009A83AB83BC838D899E89AF89B88D898BD6
:105280009A8BAB8BBC8B8D8D9E8DAF8DB8A1898F8A
:105290009A8FAB8FBC8F25968EAD9FAD25972396A9
:1052A0009FAF8EAF239721968CAD9DADAEADBFADB8
:1052B000219789AF9AAFABAFBCAFF9C0E2968EAD84
:1052C0009FADE2970196E2969FAF8EAFE297EFC057
:1052D000A8969FADA89791111CC0DE01A95ABF4F97
:1052E0004FEE52E09D01F90181919F01882309F45D
:1052F000F8C1FA019191AF018917A9F3E5EFF2E046
:105300008D91882309F4EFC191918917C9F382E047
:10531000EEC1A796EFADA797E23009F4C8C0689632
:105320008FAD6897882309F4C2C000E2E09FF001C6
:105330001124E92B3197E932F10508F0B8C0EC5C93
:10534000FF4F0C94A930CE0101960E942F176D8358
:105350007E838F8398870E9474192D966CAF7DAFE2
:105360008EAF9FAF2D97A3C091E0813409F07CC030
:105370007CC0CE0101960E94AA176D8B7E8B8F8B0D
:10538000988F0E94741965966CAF7DAF8EAF9FAFFA
:1053900065978DC0833509F08AC08D899E89AF8954
:1053A000B88DB095A095909581959F4FAF4FBF4F09
:1053B0008D8B9E8BAF8BB88F7AC0CE0101960E94E9
:1053C000AA176D8F7E8F8F8F98A371C0873509F0D4
:1053D0006EC08D8D9E8DAF8DB8A1B095A095909526
:1053E00081959F4FAF4FBF4F8D8F9E8FAF8FB8A3CB
:1053F0005EC0CE0101960E942F176DA77EA78FA7D2
:1054000098AB55C0CE0101960E942F176DAB7EABB5
:105410008FAB98AF4CC0FE01E95AFF4F20E030E05F
:10542000A901019180ED800F8A30B0F4AAE0B0E0CC
:105430000E94F32F802E000F9908AA08BB08DC01F8
:10544000CB01880D991DAA1DBB1D9C01AD012053E8
:10545000310941095109E5CF2D873E874F87588B88
:1054600026C091E081330CF490E0AA969FAFAA97F2
:105470001EC0CE01895A9F4F0E94162C992725964F
:105480009FAF8EAF259713C0CE0101960E942F17B4
:1054900021966CAF7DAF8EAF9FAF219708C0CE0134
:1054A00001960E942F176DA37EA38FA398A7A8969D
:1054B0008FADA8978F5FA8968FAFA897A9961FAEBC
:1054C000A99781E01A3209F080E067968FAF67975D
:1054D000EFCDA9961FAEA997A8961FAEA89766967E
:1054E0001FAE669782E0A7968FAFA79767961FAE0D
:1054F0006797AA961FAEAA97DBCDA9968FADA997FD
:105500008E3060F491E0980FA9969FAFA997E7E5D8
:10551000F0E0EC0FFD1FE80FF11D108367968FADD3
:1055200067978111C5CD66968FAD669718276696E9
:105530001FAF6697BDCD0E947419DC01CB018C1999
:105540009D09AE09BF09883E9340A105B10508F445
:10555000AFCD61968CAD9DADAEADBFAD61978F3FC8
:105560009F4FAF4FBF4F11F00E94741982E291E03C
:10557000D10111969C938E9380917A0390917B0335
:105580008215930571F45396ED91FC915497908197
:1055900055968C9180958923808310927B0310927D
:1055A0007A0380E090E00E944A18823551F080E052
:1055B00090E00E944A188E3409F071C00E94DE0803
:1055C0006EC064E070E0CE0101960E941C168981D5
:1055D0009A81009729F00E94342C2B013C0103C0D2
:1055E000412C512C3201CE0101960E94100F809166
:1055F000A6051F928F938091A5051F928F9380918E
:10560000A405282F082E000C330B3F938F93809115
:10561000A3058F938091A2058F938091A0058F930E
:1056200080919F058F9380919E058F9380919D051A
:105630008F938EEA92E09F938F9380ED94E09F93F7
:105640008F930E947C160FB6F894DEBF0FBECDBFBD
:10565000E12CF12C8DE9A82E82E0B82E90EDC92E18
:1056600094E0D92E8701040D151DC8010E94250361
:105670001F928F931F930F93BF92AF92DF92CF929F
:105680000E947C16FFEFEF1AFF0A0FB6F894DEBFF8
:105690000FBECDBF1AE0E116F10421F788CF40E03C
:1056A00050E062EE72E087E995E00E94E50E10920C
:1056B0007C030E94A60389EC92E09F938F9380ED78
:1056C00094E09F938F930E947C160F900F900F9001
:1056D0000F900E940A0D0C94961C0E948D090C9448
:1056E000D91A81E004C0A7961FAEA797E0CEA7966F
:1056F0008FAFA797DCCE89E795E00E94100F8FE768
:1057000095E00E94100F85E895E00E94100F8BE84D
:1057100095E00E94100F81E995E00E94100F87E943
:1057200095E00C94100FE0EDF4E01382128288EE05
:1057300093E0A0E0B0E084839583A683B7832EE650
:1057400032E03183208325EC30E03587248724EC58
:1057500030E03787268720EC30E0318B208B21EC3E
:1057600030E0338B228B22EC30E0358B248B26EC1F
:1057700030E0378B268B118E128E138E148EEDE651
:10578000F5E01382128284839583A683B7838EE922
:1057900092E091838083EDE9F5E08FEF878388E0E5
:1057A0008087118662EE72E087E995E00E942F0FF4
:1057B00060E273E081E995E00E942F0F60E273E000
:1057C0008BE895E00E942F0F6DE273E085E895E08D
:1057D0000E942F0F6AE473E08FE795E00E942F0F7D
:1057E00063E573E089E795E00C942F0FEF920F9338
:1057F0001F93CF93DF93E80147FD02C034E001C05F
:1058000034E1042E000C550B57FF03C05195419510
:105810005109E32E022F242FAE010E94872CCE01C6
:10582000DF91CF911F910F91EF900895FC01882790
:105830009927E89421912032E9F3293010F02E3095
:10584000C8F32B3241F02D3239F4689404C00E9421
:105850007F2C820F911D219120532A30C0F31EF41A
:10586000909581959F4F08951F93FC019927882754
:10587000BC01E89411911032E9F3193010F01E3098
:10588000C8F31B3251F01D3249F4689406C00E94DF
:105890006A2C610F711D811D911D119110531A30D9
:1058A000B0F33EF490958095709561957F4F8F4F42
:1058B0009F4F1F910895FB01DC014150504048F07B
:1058C00005900D920020C9F701C01D924150504033
:1058D000E0F70895592F482F372F262F660F771F8F
:1058E000881F991F660F771F881F991F620F731FEC
:1058F000841F951F660F771F881F991F08957AE0F0
:10590000979F902D879F802D910D11240895A9E0D8
:10591000B0E0EDE8FCE20C9404306A01122FB02EE6
:105920002BE3201720F0FF24F394F00E02C02CE3A9
:10593000F22E0F2D27E0AE014F5F5F4F0E94E12D49
:10594000BC014981842F8970813031F0E1FC06C0AF
:10595000E0FE06C090E205C09DE203C09BE201C0EC
:1059600090E05E2D507143FF3CC0911102C083E076
:1059700001C084E0811718F4212F281B01C020E00A
:1059800051110BC0F601822F30E2882319F03193B8
:105990008150FBCFC20ED11C20E0992329F0D60103
:1059A0009C93F60131966F01C6010396E2FE0AC090
:1059B0003EE4D6013C9341E411964C931197129624
:1059C0003C9306C03EE6F601308341E641833283D4
:1059D000FC01322F40E2332309F442C0419331509D
:1059E000FACF42FF44C0911102C083E001C084E0BD
:1059F000811718F4212F281B01C020E051110BC082
:105A0000F601822F30E2882319F031938150FBCFC9
:105A1000C20ED11C20E0992329F0D6019C93F601F7
:105A200031966F01C6010396E2FE0BC039E4D60140
:105A30003C933EE411963C93119736E412963C93C6
:105A400007C039E6F60130833EE6318336E632831D
:105A5000FC01322F40E2332319F041933150FBCF48
:105A6000FC01E20FF11D10828EEF9FEFA6C021E036
:105A700030E0911102C020E030E0161617061CF449
:105A8000FB01319602C0E1E0F0E02E0F3F1FBB208A
:105A900021F0EB2DF0E0319602C0E0E0F0E02E0FB7
:105AA0003F1FE12FF0E02E173F071CF4121B212FA0
:105AB00001C020E08E2D887159F4F601822F30E26A
:105AC000882319F031938150FBCFC20ED11C20E006
:105AD000992329F0D6019C93F60131966F0151115B
